{
  "_format": "hh-sol-artifact-1",
  "contractName": "LayerGNft",
  "sourceName": "contracts/layerg-nft.sol",
  "abi": [
    {
      "inputs": [],
      "name": "ECDSAInvalidSignature",
      "type": "error"
    },
    {
      "inputs": [
        {
          "internalType": "uint256",
          "name": "length",
          "type": "uint256"
        }
      ],
      "name": "ECDSAInvalidSignatureLength",
      "type": "error"
    },
    {
      "inputs": [
        {
          "internalType": "bytes32",
          "name": "s",
          "type": "bytes32"
        }
      ],
      "name": "ECDSAInvalidSignatureS",
      "type": "error"
    },
    {
      "inputs": [],
      "name": "InvalidInitialization",
      "type": "error"
    },
    {
      "inputs": [],
      "name": "NotInitializing",
      "type": "error"
    },
    {
      "inputs": [
        {
          "internalType": "address",
          "name": "owner",
          "type": "address"
        }
      ],
      "name": "OwnableInvalidOwner",
      "type": "error"
    },
    {
      "inputs": [
        {
          "internalType": "address",
          "name": "account",
          "type": "address"
        }
      ],
      "name": "OwnableUnauthorizedAccount",
      "type": "error"
    },
    {
      "anonymous": false,
      "inputs": [
        {
          "indexed": false,
          "internalType": "uint64",
          "name": "version",
          "type": "uint64"
        }
      ],
      "name": "Initialized",
      "type": "event"
    },
    {
      "anonymous": false,
      "inputs": [
        {
          "indexed": true,
          "internalType": "address",
          "name": "previousOwner",
          "type": "address"
        },
        {
          "indexed": true,
          "internalType": "address",
          "name": "newOwner",
          "type": "address"
        }
      ],
      "name": "OwnershipTransferred",
      "type": "event"
    },
    {
      "inputs": [
        {
          "internalType": "address",
          "name": "recipient",
          "type": "address"
        },
        {
          "internalType": "string",
          "name": "nftId",
          "type": "string"
        },
        {
          "internalType": "uint32",
          "name": "amount",
          "type": "uint32"
        },
        {
          "internalType": "bytes32",
          "name": "salt",
          "type": "bytes32"
        },
        {
          "internalType": "bytes",
          "name": "signature",
          "type": "bytes"
        }
      ],
      "name": "mintNFTVerify",
      "outputs": [
        {
          "internalType": "bool",
          "name": "",
          "type": "bool"
        }
      ],
      "stateMutability": "view",
      "type": "function"
    },
    {
      "inputs": [],
      "name": "owner",
      "outputs": [
        {
          "internalType": "address",
          "name": "",
          "type": "address"
        }
      ],
      "stateMutability": "view",
      "type": "function"
    },
    {
      "inputs": [],
      "name": "renounceOwnership",
      "outputs": [],
      "stateMutability": "nonpayable",
      "type": "function"
    },
    {
      "inputs": [
        {
          "internalType": "address",
          "name": "from",
          "type": "address"
        },
        {
          "internalType": "address",
          "name": "to",
          "type": "address"
        },
        {
          "internalType": "string",
          "name": "nftId",
          "type": "string"
        },
        {
          "internalType": "uint32",
          "name": "amount",
          "type": "uint32"
        },
        {
          "internalType": "bytes32",
          "name": "salt",
          "type": "bytes32"
        },
        {
          "internalType": "bytes",
          "name": "signature",
          "type": "bytes"
        }
      ],
      "name": "transferNFTVerify",
      "outputs": [
        {
          "internalType": "bool",
          "name": "",
          "type": "bool"
        }
      ],
      "stateMutability": "view",
      "type": "function"
    },
    {
      "inputs": [
        {
          "internalType": "address",
          "name": "newOwner",
          "type": "address"
        }
      ],
      "name": "transferOwnership",
      "outputs": [],
      "stateMutability": "nonpayable",
      "type": "function"
    }
  ],
  "bytecode": "0x6080604052348015600f57600080fd5b5061120d8061001f6000396000f3fe608060405234801561001057600080fd5b50600436106100575760003560e01c8063715018a61461005c5780638da5cb5b14610066578063a3a497db14610084578063bf3bd4af146100b4578063f2fde38b146100e4575b600080fd5b610064610100565b005b61006e610114565b60405161007b9190610a26565b60405180910390f35b61009e60048036038101906100999190610cda565b61014c565b6040516100ab9190610da8565b60405180910390f35b6100ce60048036038101906100c99190610dc3565b6101a9565b6040516100db9190610da8565b60405180910390f35b6100fe60048036038101906100f99190610e88565b610223565b005b6101086102a9565b6101126000610330565b565b60008061011f610407565b90508060000160009054906101000a900473ffffffffffffffffffffffffffffffffffffffff1691505090565b60008061018e60405180606001604052808973ffffffffffffffffffffffffffffffffffffffff1681526020018881526020018763ffffffff1681525061042f565b905061019b818585610498565b600191505095945050505050565b60008061020760405180608001604052808a73ffffffffffffffffffffffffffffffffffffffff1681526020018973ffffffffffffffffffffffffffffffffffffffff1681526020018881526020018763ffffffff16815250610612565b9050610214818585610498565b60019150509695505050505050565b61022b6102a9565b600073ffffffffffffffffffffffffffffffffffffffff168173ffffffffffffffffffffffffffffffffffffffff160361029d5760006040517f1e4fbdf70000000000000000000000000000000000000000000000000000000081526004016102949190610a26565b60405180910390fd5b6102a681610330565b50565b6102b1610681565b73ffffffffffffffffffffffffffffffffffffffff166102cf610114565b73ffffffffffffffffffffffffffffffffffffffff161461032e576102f2610681565b6040517f118cdaa70000000000000000000000000000000000000000000000000000000081526004016103259190610a26565b60405180910390fd5b565b600061033a610407565b905060008160000160009054906101000a900473ffffffffffffffffffffffffffffffffffffffff169050828260000160006101000a81548173ffffffffffffffffffffffffffffffffffffffff021916908373ffffffffffffffffffffffffffffffffffffffff1602179055508273ffffffffffffffffffffffffffffffffffffffff168173ffffffffffffffffffffffffffffffffffffffff167f8be0079c531659141344cd1fd0a4f28419497f9722a3daafe3b4186f6b6457e060405160405180910390a3505050565b60007f9016d09d72d40fdae2fd8ceac6b6234c7706214fd39c1cd1e609a0528c199300905090565b60007f887b8ae933dc6a2dd105334ac734279ca3c18ae8dc15f201c8ad57a55da8a8d38260000151836020015180519060200120846040015160405160200161047b9493929190610ed3565b604051602081830303815290604052805190602001209050919050565b6000469050600030905060006105536040518060a001604052806040518060400160405280600981526020017f4c61796572474e6674000000000000000000000000000000000000000000000081525081526020016040518060400160405280600181526020017f310000000000000000000000000000000000000000000000000000000000000081525081526020018581526020018473ffffffffffffffffffffffffffffffffffffffff16815260200187815250610689565b90506000818760405160200161056a929190610f90565b60405160208183030381529060405280519060200120905061058a610114565b73ffffffffffffffffffffffffffffffffffffffff166105b3868361070590919063ffffffff16565b73ffffffffffffffffffffffffffffffffffffffff1614610609576040517f08c379a000000000000000000000000000000000000000000000000000000000815260040161060090611024565b60405180910390fd5b50505050505050565b60007f8e674347a6c4abced0b12205d15a570fea775326753db510a172716fe6ef57a0826000015183602001518460400151805190602001208560600151604051602001610664959493929190611044565b604051602081830303815290604052805190602001209050919050565b600033905090565b60007fd87cd6ef79d4e2b95e15ce8abf732db51ec771f1ca2edccf22a46c729ac564728260000151805190602001208360200151805190602001208460400151856060015186608001516040516020016106e8969594939291906110b0565b604051602081830303815290604052805190602001209050919050565b6000806000806107158686610731565b925092509250610725828261078d565b82935050505092915050565b600080600060418451036107765760008060006020870151925060408701519150606087015160001a9050610768888285856108f1565b955095509550505050610786565b60006002855160001b9250925092505b9250925092565b600060038111156107a1576107a0611111565b5b8260038111156107b4576107b3611111565b5b03156108ed57600160038111156107ce576107cd611111565b5b8260038111156107e1576107e0611111565b5b03610818576040517ff645eedf00000000000000000000000000000000000000000000000000000000815260040160405180910390fd5b6002600381111561082c5761082b611111565b5b82600381111561083f5761083e611111565b5b03610884578060001c6040517ffce698f700000000000000000000000000000000000000000000000000000000815260040161087b9190611140565b60405180910390fd5b60038081111561089757610896611111565b5b8260038111156108aa576108a9611111565b5b036108ec57806040517fd78bce0c0000000000000000000000000000000000000000000000000000000081526004016108e3919061115b565b60405180910390fd5b5b5050565b60008060007f7fffffffffffffffffffffffffffffff5d576e7357a4501ddfe92f46681b20a08460001c11156109315760006003859250925092506109db565b6000600188888888604051600081526020016040526040516109569493929190611192565b6020604051602081039080840390855afa158015610978573d6000803e3d6000fd5b505050602060405103519050600073ffffffffffffffffffffffffffffffffffffffff168173ffffffffffffffffffffffffffffffffffffffff16036109cc57600060016000801b935093509350506109db565b8060008060001b935093509350505b9450945094915050565b600073ffffffffffffffffffffffffffffffffffffffff82169050919050565b6000610a10826109e5565b9050919050565b610a2081610a05565b82525050565b6000602082019050610a3b6000830184610a17565b92915050565b6000604051905090565b600080fd5b600080fd5b610a5e81610a05565b8114610a6957600080fd5b50565b600081359050610a7b81610a55565b92915050565b600080fd5b600080fd5b6000601f19601f8301169050919050565b7f4e487b7100000000000000000000000000000000000000000000000000000000600052604160045260246000fd5b610ad482610a8b565b810181811067ffffffffffffffff82111715610af357610af2610a9c565b5b80604052505050565b6000610b06610a41565b9050610b128282610acb565b919050565b600067ffffffffffffffff821115610b3257610b31610a9c565b5b610b3b82610a8b565b9050602081019050919050565b82818337600083830152505050565b6000610b6a610b6584610b17565b610afc565b905082815260208101848484011115610b8657610b85610a86565b5b610b91848285610b48565b509392505050565b600082601f830112610bae57610bad610a81565b5b8135610bbe848260208601610b57565b91505092915050565b600063ffffffff82169050919050565b610be081610bc7565b8114610beb57600080fd5b50565b600081359050610bfd81610bd7565b92915050565b6000819050919050565b610c1681610c03565b8114610c2157600080fd5b50565b600081359050610c3381610c0d565b92915050565b600067ffffffffffffffff821115610c5457610c53610a9c565b5b610c5d82610a8b565b9050602081019050919050565b6000610c7d610c7884610c39565b610afc565b905082815260208101848484011115610c9957610c98610a86565b5b610ca4848285610b48565b509392505050565b600082601f830112610cc157610cc0610a81565b5b8135610cd1848260208601610c6a565b91505092915050565b600080600080600060a08688031215610cf657610cf5610a4b565b5b6000610d0488828901610a6c565b955050602086013567ffffffffffffffff811115610d2557610d24610a50565b5b610d3188828901610b99565b9450506040610d4288828901610bee565b9350506060610d5388828901610c24565b925050608086013567ffffffffffffffff811115610d7457610d73610a50565b5b610d8088828901610cac565b9150509295509295909350565b60008115159050919050565b610da281610d8d565b82525050565b6000602082019050610dbd6000830184610d99565b92915050565b60008060008060008060c08789031215610de057610ddf610a4b565b5b6000610dee89828a01610a6c565b9650506020610dff89828a01610a6c565b955050604087013567ffffffffffffffff811115610e2057610e1f610a50565b5b610e2c89828a01610b99565b9450506060610e3d89828a01610bee565b9350506080610e4e89828a01610c24565b92505060a087013567ffffffffffffffff811115610e6f57610e6e610a50565b5b610e7b89828a01610cac565b9150509295509295509295565b600060208284031215610e9e57610e9d610a4b565b5b6000610eac84828501610a6c565b91505092915050565b610ebe81610c03565b82525050565b610ecd81610bc7565b82525050565b6000608082019050610ee86000830187610eb5565b610ef56020830186610a17565b610f026040830185610eb5565b610f0f6060830184610ec4565b95945050505050565b600081905092915050565b7f1901000000000000000000000000000000000000000000000000000000000000600082015250565b6000610f59600283610f18565b9150610f6482610f23565b600282019050919050565b6000819050919050565b610f8a610f8582610c03565b610f6f565b82525050565b6000610f9b82610f4c565b9150610fa78285610f79565b602082019150610fb78284610f79565b6020820191508190509392505050565b600082825260208201905092915050565b7f496e76616c6964207369676e6174757265000000000000000000000000000000600082015250565b600061100e601183610fc7565b915061101982610fd8565b602082019050919050565b6000602082019050818103600083015261103d81611001565b9050919050565b600060a0820190506110596000830188610eb5565b6110666020830187610a17565b6110736040830186610a17565b6110806060830185610eb5565b61108d6080830184610ec4565b9695505050505050565b6000819050919050565b6110aa81611097565b82525050565b600060c0820190506110c56000830189610eb5565b6110d26020830188610eb5565b6110df6040830187610eb5565b6110ec60608301866110a1565b6110f96080830185610a17565b61110660a0830184610eb5565b979650505050505050565b7f4e487b7100000000000000000000000000000000000000000000000000000000600052602160045260246000fd5b600060208201905061115560008301846110a1565b92915050565b60006020820190506111706000830184610eb5565b92915050565b600060ff82169050919050565b61118c81611176565b82525050565b60006080820190506111a76000830187610eb5565b6111b46020830186611183565b6111c16040830185610eb5565b6111ce6060830184610eb5565b9594505050505056fea264697066735822122060ac96b61a9d601be04de7a191612479b8a54cfe7fd5639f17808336d49833b164736f6c634300081b0033",
  "linkReferences": {},
  "deployedLinkReferences": {}
}